{
  "contractName": "BlinkToken",
  "abi": [
    {
      "inputs": [],
      "stateMutability": "nonpayable",
      "type": "constructor"
    },
    {
      "anonymous": false,
      "inputs": [
        {
          "indexed": true,
          "internalType": "address",
          "name": "owner",
          "type": "address"
        },
        {
          "indexed": true,
          "internalType": "address",
          "name": "approved",
          "type": "address"
        },
        {
          "indexed": true,
          "internalType": "uint256",
          "name": "tokenId",
          "type": "uint256"
        }
      ],
      "name": "Approval",
      "type": "event"
    },
    {
      "anonymous": false,
      "inputs": [
        {
          "indexed": true,
          "internalType": "address",
          "name": "owner",
          "type": "address"
        },
        {
          "indexed": true,
          "internalType": "address",
          "name": "operator",
          "type": "address"
        },
        {
          "indexed": false,
          "internalType": "bool",
          "name": "approved",
          "type": "bool"
        }
      ],
      "name": "ApprovalForAll",
      "type": "event"
    },
    {
      "anonymous": false,
      "inputs": [
        {
          "indexed": false,
          "internalType": "address",
          "name": "account",
          "type": "address"
        }
      ],
      "name": "Paused",
      "type": "event"
    },
    {
      "anonymous": false,
      "inputs": [
        {
          "indexed": true,
          "internalType": "bytes32",
          "name": "role",
          "type": "bytes32"
        },
        {
          "indexed": true,
          "internalType": "bytes32",
          "name": "previousAdminRole",
          "type": "bytes32"
        },
        {
          "indexed": true,
          "internalType": "bytes32",
          "name": "newAdminRole",
          "type": "bytes32"
        }
      ],
      "name": "RoleAdminChanged",
      "type": "event"
    },
    {
      "anonymous": false,
      "inputs": [
        {
          "indexed": true,
          "internalType": "bytes32",
          "name": "role",
          "type": "bytes32"
        },
        {
          "indexed": true,
          "internalType": "address",
          "name": "account",
          "type": "address"
        },
        {
          "indexed": true,
          "internalType": "address",
          "name": "sender",
          "type": "address"
        }
      ],
      "name": "RoleGranted",
      "type": "event"
    },
    {
      "anonymous": false,
      "inputs": [
        {
          "indexed": true,
          "internalType": "bytes32",
          "name": "role",
          "type": "bytes32"
        },
        {
          "indexed": true,
          "internalType": "address",
          "name": "account",
          "type": "address"
        },
        {
          "indexed": true,
          "internalType": "address",
          "name": "sender",
          "type": "address"
        }
      ],
      "name": "RoleRevoked",
      "type": "event"
    },
    {
      "anonymous": false,
      "inputs": [
        {
          "indexed": true,
          "internalType": "address",
          "name": "from",
          "type": "address"
        },
        {
          "indexed": true,
          "internalType": "address",
          "name": "to",
          "type": "address"
        },
        {
          "indexed": true,
          "internalType": "uint256",
          "name": "tokenId",
          "type": "uint256"
        }
      ],
      "name": "Transfer",
      "type": "event"
    },
    {
      "anonymous": false,
      "inputs": [
        {
          "indexed": false,
          "internalType": "address",
          "name": "account",
          "type": "address"
        }
      ],
      "name": "Unpaused",
      "type": "event"
    },
    {
      "inputs": [],
      "name": "DEFAULT_ADMIN_ROLE",
      "outputs": [
        {
          "internalType": "bytes32",
          "name": "",
          "type": "bytes32"
        }
      ],
      "stateMutability": "view",
      "type": "function",
      "constant": true
    },
    {
      "inputs": [],
      "name": "MINTER_ROLE",
      "outputs": [
        {
          "internalType": "bytes32",
          "name": "",
          "type": "bytes32"
        }
      ],
      "stateMutability": "view",
      "type": "function",
      "constant": true
    },
    {
      "inputs": [],
      "name": "PAUSER_ROLE",
      "outputs": [
        {
          "internalType": "bytes32",
          "name": "",
          "type": "bytes32"
        }
      ],
      "stateMutability": "view",
      "type": "function",
      "constant": true
    },
    {
      "inputs": [
        {
          "internalType": "address",
          "name": "to",
          "type": "address"
        },
        {
          "internalType": "uint256",
          "name": "tokenId",
          "type": "uint256"
        }
      ],
      "name": "approve",
      "outputs": [],
      "stateMutability": "nonpayable",
      "type": "function"
    },
    {
      "inputs": [
        {
          "internalType": "address",
          "name": "owner",
          "type": "address"
        }
      ],
      "name": "balanceOf",
      "outputs": [
        {
          "internalType": "uint256",
          "name": "",
          "type": "uint256"
        }
      ],
      "stateMutability": "view",
      "type": "function",
      "constant": true
    },
    {
      "inputs": [
        {
          "internalType": "uint256",
          "name": "tokenId",
          "type": "uint256"
        }
      ],
      "name": "burn",
      "outputs": [],
      "stateMutability": "nonpayable",
      "type": "function"
    },
    {
      "inputs": [
        {
          "internalType": "uint256",
          "name": "tokenId",
          "type": "uint256"
        }
      ],
      "name": "getApproved",
      "outputs": [
        {
          "internalType": "address",
          "name": "",
          "type": "address"
        }
      ],
      "stateMutability": "view",
      "type": "function",
      "constant": true
    },
    {
      "inputs": [
        {
          "internalType": "bytes32",
          "name": "role",
          "type": "bytes32"
        }
      ],
      "name": "getRoleAdmin",
      "outputs": [
        {
          "internalType": "bytes32",
          "name": "",
          "type": "bytes32"
        }
      ],
      "stateMutability": "view",
      "type": "function",
      "constant": true
    },
    {
      "inputs": [
        {
          "internalType": "bytes32",
          "name": "role",
          "type": "bytes32"
        },
        {
          "internalType": "uint256",
          "name": "index",
          "type": "uint256"
        }
      ],
      "name": "getRoleMember",
      "outputs": [
        {
          "internalType": "address",
          "name": "",
          "type": "address"
        }
      ],
      "stateMutability": "view",
      "type": "function",
      "constant": true
    },
    {
      "inputs": [
        {
          "internalType": "bytes32",
          "name": "role",
          "type": "bytes32"
        }
      ],
      "name": "getRoleMemberCount",
      "outputs": [
        {
          "internalType": "uint256",
          "name": "",
          "type": "uint256"
        }
      ],
      "stateMutability": "view",
      "type": "function",
      "constant": true
    },
    {
      "inputs": [
        {
          "internalType": "bytes32",
          "name": "role",
          "type": "bytes32"
        },
        {
          "internalType": "address",
          "name": "account",
          "type": "address"
        }
      ],
      "name": "grantRole",
      "outputs": [],
      "stateMutability": "nonpayable",
      "type": "function"
    },
    {
      "inputs": [
        {
          "internalType": "bytes32",
          "name": "role",
          "type": "bytes32"
        },
        {
          "internalType": "address",
          "name": "account",
          "type": "address"
        }
      ],
      "name": "hasRole",
      "outputs": [
        {
          "internalType": "bool",
          "name": "",
          "type": "bool"
        }
      ],
      "stateMutability": "view",
      "type": "function",
      "constant": true
    },
    {
      "inputs": [
        {
          "internalType": "address",
          "name": "owner",
          "type": "address"
        },
        {
          "internalType": "address",
          "name": "operator",
          "type": "address"
        }
      ],
      "name": "isApprovedForAll",
      "outputs": [
        {
          "internalType": "bool",
          "name": "",
          "type": "bool"
        }
      ],
      "stateMutability": "view",
      "type": "function",
      "constant": true
    },
    {
      "inputs": [
        {
          "internalType": "address",
          "name": "to",
          "type": "address"
        }
      ],
      "name": "mint",
      "outputs": [],
      "stateMutability": "nonpayable",
      "type": "function"
    },
    {
      "inputs": [],
      "name": "name",
      "outputs": [
        {
          "internalType": "string",
          "name": "",
          "type": "string"
        }
      ],
      "stateMutability": "view",
      "type": "function",
      "constant": true
    },
    {
      "inputs": [
        {
          "internalType": "uint256",
          "name": "tokenId",
          "type": "uint256"
        }
      ],
      "name": "ownerOf",
      "outputs": [
        {
          "internalType": "address",
          "name": "",
          "type": "address"
        }
      ],
      "stateMutability": "view",
      "type": "function",
      "constant": true
    },
    {
      "inputs": [],
      "name": "pause",
      "outputs": [],
      "stateMutability": "nonpayable",
      "type": "function"
    },
    {
      "inputs": [],
      "name": "paused",
      "outputs": [
        {
          "internalType": "bool",
          "name": "",
          "type": "bool"
        }
      ],
      "stateMutability": "view",
      "type": "function",
      "constant": true
    },
    {
      "inputs": [
        {
          "internalType": "bytes32",
          "name": "role",
          "type": "bytes32"
        },
        {
          "internalType": "address",
          "name": "account",
          "type": "address"
        }
      ],
      "name": "renounceRole",
      "outputs": [],
      "stateMutability": "nonpayable",
      "type": "function"
    },
    {
      "inputs": [
        {
          "internalType": "bytes32",
          "name": "role",
          "type": "bytes32"
        },
        {
          "internalType": "address",
          "name": "account",
          "type": "address"
        }
      ],
      "name": "revokeRole",
      "outputs": [],
      "stateMutability": "nonpayable",
      "type": "function"
    },
    {
      "inputs": [
        {
          "internalType": "address",
          "name": "from",
          "type": "address"
        },
        {
          "internalType": "address",
          "name": "to",
          "type": "address"
        },
        {
          "internalType": "uint256",
          "name": "tokenId",
          "type": "uint256"
        }
      ],
      "name": "safeTransferFrom",
      "outputs": [],
      "stateMutability": "nonpayable",
      "type": "function"
    },
    {
      "inputs": [
        {
          "internalType": "address",
          "name": "from",
          "type": "address"
        },
        {
          "internalType": "address",
          "name": "to",
          "type": "address"
        },
        {
          "internalType": "uint256",
          "name": "tokenId",
          "type": "uint256"
        },
        {
          "internalType": "bytes",
          "name": "data",
          "type": "bytes"
        }
      ],
      "name": "safeTransferFrom",
      "outputs": [],
      "stateMutability": "nonpayable",
      "type": "function"
    },
    {
      "inputs": [
        {
          "internalType": "address",
          "name": "operator",
          "type": "address"
        },
        {
          "internalType": "bool",
          "name": "approved",
          "type": "bool"
        }
      ],
      "name": "setApprovalForAll",
      "outputs": [],
      "stateMutability": "nonpayable",
      "type": "function"
    },
    {
      "inputs": [
        {
          "internalType": "bytes4",
          "name": "interfaceId",
          "type": "bytes4"
        }
      ],
      "name": "supportsInterface",
      "outputs": [
        {
          "internalType": "bool",
          "name": "",
          "type": "bool"
        }
      ],
      "stateMutability": "view",
      "type": "function",
      "constant": true
    },
    {
      "inputs": [],
      "name": "symbol",
      "outputs": [
        {
          "internalType": "string",
          "name": "",
          "type": "string"
        }
      ],
      "stateMutability": "view",
      "type": "function",
      "constant": true
    },
    {
      "inputs": [
        {
          "internalType": "uint256",
          "name": "index",
          "type": "uint256"
        }
      ],
      "name": "tokenByIndex",
      "outputs": [
        {
          "internalType": "uint256",
          "name": "",
          "type": "uint256"
        }
      ],
      "stateMutability": "view",
      "type": "function",
      "constant": true
    },
    {
      "inputs": [
        {
          "internalType": "address",
          "name": "owner",
          "type": "address"
        },
        {
          "internalType": "uint256",
          "name": "index",
          "type": "uint256"
        }
      ],
      "name": "tokenOfOwnerByIndex",
      "outputs": [
        {
          "internalType": "uint256",
          "name": "",
          "type": "uint256"
        }
      ],
      "stateMutability": "view",
      "type": "function",
      "constant": true
    },
    {
      "inputs": [],
      "name": "totalSupply",
      "outputs": [
        {
          "internalType": "uint256",
          "name": "",
          "type": "uint256"
        }
      ],
      "stateMutability": "view",
      "type": "function",
      "constant": true
    },
    {
      "inputs": [
        {
          "internalType": "address",
          "name": "from",
          "type": "address"
        },
        {
          "internalType": "address",
          "name": "to",
          "type": "address"
        },
        {
          "internalType": "uint256",
          "name": "tokenId",
          "type": "uint256"
        }
      ],
      "name": "transferFrom",
      "outputs": [],
      "stateMutability": "nonpayable",
      "type": "function"
    },
    {
      "inputs": [],
      "name": "unpause",
      "outputs": [],
      "stateMutability": "nonpayable",
      "type": "function"
    },
    {
      "inputs": [
        {
          "internalType": "uint256",
          "name": "tokenId",
          "type": "uint256"
        }
      ],
      "name": "tokenURI",
      "outputs": [
        {
          "internalType": "string",
          "name": "",
          "type": "string"
        }
      ],
      "stateMutability": "view",
      "type": "function",
      "constant": true
    }
  ],
  "bytecode": "0x60806040523480156200001157600080fd5b506040518060400160405280600a81526020017f426c696e6b546f6b656e000000000000000000000000000000000000000000008152506040518060400160405280600381526020017f424c4b00000000000000000000000000000000000000000000000000000000008152506040518060400160405280601b81526020017f68747470733a2f2f626c696e6b2e6172742f6d657461646174612f000000000081525082828160029081620000c79190620006c8565b508060039081620000d99190620006c8565b5050506000600c60006101000a81548160ff02191690831515021790555080600e9081620001089190620006c8565b506200012d6000801b62000121620001b860201b60201c565b620001c060201b60201c565b6200016e7f9f2df0fed2c77648de5860a4cc508cd0818c85b8b8a1ab4ceeef8d981c8956a662000162620001b860201b60201c565b620001c060201b60201c565b620001af7f65d7a28e3265b37a6474929f336521b332c1681b933f6cb9f3376673440d862a620001a3620001b860201b60201c565b620001c060201b60201c565b505050620007af565b600033905090565b620001d28282620001d660201b60201c565b5050565b620001ed82826200021e60201b620010bf1760201c565b6200021981600160008581526020019081526020016000206200030f60201b6200119f1790919060201c565b505050565b6200023082826200034760201b60201c565b6200030b57600160008084815260200190815260200160002060000160008373ffffffffffffffffffffffffffffffffffffffff1673ffffffffffffffffffffffffffffffffffffffff16815260200190815260200160002060006101000a81548160ff021916908315150217905550620002b0620001b860201b60201c565b73ffffffffffffffffffffffffffffffffffffffff168173ffffffffffffffffffffffffffffffffffffffff16837f2f8788117e7eff1d82e926ec794901d17c78024a50270940304540a733656f0d60405160405180910390a45b5050565b60006200033f836000018373ffffffffffffffffffffffffffffffffffffffff1660001b620003b160201b60201c565b905092915050565b600080600084815260200190815260200160002060000160008373ffffffffffffffffffffffffffffffffffffffff1673ffffffffffffffffffffffffffffffffffffffff16815260200190815260200160002060009054906101000a900460ff16905092915050565b6000620003c583836200042b60201b60201c565b6200042057826000018290806001815401808255809150506001900390600052602060002001600090919091909150558260000180549050836001016000848152602001908152602001600020819055506001905062000425565b600090505b92915050565b600080836001016000848152602001908152602001600020541415905092915050565b600081519050919050565b7f4e487b7100000000000000000000000000000000000000000000000000000000600052604160045260246000fd5b7f4e487b7100000000000000000000000000000000000000000000000000000000600052602260045260246000fd5b60006002820490506001821680620004d057607f821691505b602082108103620004e657620004e562000488565b5b50919050565b60008190508160005260206000209050919050565b60006020601f8301049050919050565b600082821b905092915050565b600060088302620005507fffffffffffffffffffffffffffffffffffffffffffffffffffffffffffffffff8262000511565b6200055c868362000511565b95508019841693508086168417925050509392505050565b6000819050919050565b6000819050919050565b6000620005a9620005a36200059d8462000574565b6200057e565b62000574565b9050919050565b6000819050919050565b620005c58362000588565b620005dd620005d482620005b0565b8484546200051e565b825550505050565b600090565b620005f4620005e5565b62000601818484620005ba565b505050565b5b8181101562000629576200061d600082620005ea565b60018101905062000607565b5050565b601f82111562000678576200064281620004ec565b6200064d8462000501565b810160208510156200065d578190505b620006756200066c8562000501565b83018262000606565b50505b505050565b600082821c905092915050565b60006200069d600019846008026200067d565b1980831691505092915050565b6000620006b883836200068a565b9150826002028217905092915050565b620006d3826200044e565b67ffffffffffffffff811115620006ef57620006ee62000459565b5b620006fb8254620004b7565b620007088282856200062d565b600060209050601f8311600181146200074057600084156200072b578287015190505b620007378582620006aa565b865550620007a7565b601f1984166200075086620004ec565b60005b828110156200077a5784890151825560018201915060208501945060208101905062000753565b868310156200079a578489015162000796601f8916826200068a565b8355505b6001600288020188555050505b505050505050565b61489080620007bf6000396000f3fe608060405234801561001057600080fd5b50600436106101e55760003560e01c80636352211e1161010f578063a22cb465116100a2578063d539139311610071578063d5391393146105a0578063d547741f146105be578063e63ab1e9146105da578063e985e9c5146105f8576101e5565b8063a22cb46514610508578063b88d4fde14610524578063c87b56dd14610540578063ca15c87314610570576101e5565b80639010d07c116100de5780639010d07c1461046c57806391d148541461049c57806395d89b41146104cc578063a217fddf146104ea576101e5565b80636352211e146103e65780636a6278421461041657806370a08231146104325780638456cb5914610462576101e5565b80632f2ff15d1161018757806342842e0e1161015657806342842e0e1461036057806342966c681461037c5780634f6ccce7146103985780635c975abb146103c8576101e5565b80632f2ff15d146102ee5780632f745c591461030a57806336568abe1461033a5780633f4ba83a14610356576101e5565b8063095ea7b3116101c3578063095ea7b31461026857806318160ddd1461028457806323b872dd146102a2578063248a9ca3146102be576101e5565b806301ffc9a7146101ea57806306fdde031461021a578063081812fc14610238575b600080fd5b61020460048036038101906101ff919061320b565b610628565b6040516102119190613253565b60405180910390f35b61022261063a565b60405161022f91906132fe565b60405180910390f35b610252600480360381019061024d9190613356565b6106cc565b60405161025f91906133c4565b60405180910390f35b610282600480360381019061027d919061340b565b610712565b005b61028c610829565b604051610299919061345a565b60405180910390f35b6102bc60048036038101906102b79190613475565b610836565b005b6102d860048036038101906102d391906134fe565b610896565b6040516102e5919061353a565b60405180910390f35b61030860048036038101906103039190613555565b6108b5565b005b610324600480360381019061031f919061340b565b6108d6565b604051610331919061345a565b60405180910390f35b610354600480360381019061034f9190613555565b61097b565b005b61035e6109fe565b005b61037a60048036038101906103759190613475565b610a78565b005b61039660048036038101906103919190613356565b610a98565b005b6103b260048036038101906103ad9190613356565b610af4565b6040516103bf919061345a565b60405180910390f35b6103d0610b65565b6040516103dd9190613253565b60405180910390f35b61040060048036038101906103fb9190613356565b610b7c565b60405161040d91906133c4565b60405180910390f35b610430600480360381019061042b9190613595565b610c02565b005b61044c60048036038101906104479190613595565b610c92565b604051610459919061345a565b60405180910390f35b61046a610d49565b005b610486600480360381019061048191906135c2565b610dc3565b60405161049391906133c4565b60405180910390f35b6104b660048036038101906104b19190613555565b610df2565b6040516104c39190613253565b60405180910390f35b6104d4610e5c565b6040516104e191906132fe565b60405180910390f35b6104f2610eee565b6040516104ff919061353a565b60405180910390f35b610522600480360381019061051d919061362e565b610ef5565b005b61053e600480360381019061053991906137a3565b610f0b565b005b61055a60048036038101906105559190613356565b610f6d565b60405161056791906132fe565b60405180910390f35b61058a600480360381019061058591906134fe565b610f9e565b604051610597919061345a565b60405180910390f35b6105a8610fc2565b6040516105b5919061353a565b60405180910390f35b6105d860048036038101906105d39190613555565b610fe6565b005b6105e2611007565b6040516105ef919061353a565b60405180910390f35b610612600480360381019061060d9190613826565b61102b565b60405161061f9190613253565b60405180910390f35b6000610633826111cf565b9050919050565b60606002805461064990613895565b80601f016020809104026020016040519081016040528092919081815260200182805461067590613895565b80156106c25780601f10610697576101008083540402835291602001916106c2565b820191906000526020600020905b8154815290600101906020018083116106a557829003601f168201915b5050505050905090565b60006106d782611249565b6006600083815260200190815260200160002060009054906101000a900473ffffffffffffffffffffffffffffffffffffffff169050919050565b600061071d82610b7c565b90508073ffffffffffffffffffffffffffffffffffffffff168373ffffffffffffffffffffffffffffffffffffffff160361078d576040517f08c379a000000000000000000000000000000000000000000000000000000000815260040161078490613938565b60405180910390fd5b8073ffffffffffffffffffffffffffffffffffffffff166107ac611294565b73ffffffffffffffffffffffffffffffffffffffff1614806107db57506107da816107d5611294565b61102b565b5b61081a576040517f08c379a0000000000000000000000000000000000000000000000000000000008152600401610811906139ca565b60405180910390fd5b610824838361129c565b505050565b6000600a80549050905090565b610847610841611294565b82611355565b610886576040517f08c379a000000000000000000000000000000000000000000000000000000000815260040161087d90613a5c565b60405180910390fd5b6108918383836113ea565b505050565b6000806000838152602001908152602001600020600101549050919050565b6108be82610896565b6108c7816116e3565b6108d183836116f7565b505050565b60006108e183610c92565b8210610922576040517f08c379a000000000000000000000000000000000000000000000000000000000815260040161091990613aee565b60405180910390fd5b600860008473ffffffffffffffffffffffffffffffffffffffff1673ffffffffffffffffffffffffffffffffffffffff168152602001908152602001600020600083815260200190815260200160002054905092915050565b610983611294565b73ffffffffffffffffffffffffffffffffffffffff168173ffffffffffffffffffffffffffffffffffffffff16146109f0576040517f08c379a00000000000000000000000000000000000000000000000000000000081526004016109e790613b80565b60405180910390fd5b6109fa828261172b565b5050565b610a2f7f65d7a28e3265b37a6474929f336521b332c1681b933f6cb9f3376673440d862a610a2a611294565b610df2565b610a6e576040517f08c379a0000000000000000000000000000000000000000000000000000000008152600401610a6590613c12565b60405180910390fd5b610a7661175f565b565b610a9383838360405180602001604052806000815250610f0b565b505050565b610aa9610aa3611294565b82611355565b610ae8576040517f08c379a0000000000000000000000000000000000000000000000000000000008152600401610adf90613a5c565b60405180910390fd5b610af1816117c2565b50565b6000610afe610829565b8210610b3f576040517f08c379a0000000000000000000000000000000000000000000000000000000008152600401610b3690613ca4565b60405180910390fd5b600a8281548110610b5357610b52613cc4565b5b90600052602060002001549050919050565b6000600c60009054906101000a900460ff16905090565b600080610b8883611910565b9050600073ffffffffffffffffffffffffffffffffffffffff168173ffffffffffffffffffffffffffffffffffffffff1603610bf9576040517f08c379a0000000000000000000000000000000000000000000000000000000008152600401610bf090613d3f565b60405180910390fd5b80915050919050565b610c337f9f2df0fed2c77648de5860a4cc508cd0818c85b8b8a1ab4ceeef8d981c8956a6610c2e611294565b610df2565b610c72576040517f08c379a0000000000000000000000000000000000000000000000000000000008152600401610c6990613dd1565b60405180910390fd5b610c8581610c80600d61194d565b61195b565b610c8f600d611b78565b50565b60008073ffffffffffffffffffffffffffffffffffffffff168273ffffffffffffffffffffffffffffffffffffffff1603610d02576040517f08c379a0000000000000000000000000000000000000000000000000000000008152600401610cf990613e63565b60405180910390fd5b600560008373ffffffffffffffffffffffffffffffffffffffff1673ffffffffffffffffffffffffffffffffffffffff168152602001908152602001600020549050919050565b610d7a7f65d7a28e3265b37a6474929f336521b332c1681b933f6cb9f3376673440d862a610d75611294565b610df2565b610db9576040517f08c379a0000000000000000000000000000000000000000000000000000000008152600401610db090613ef5565b60405180910390fd5b610dc1611b8e565b565b6000610dea8260016000868152602001908152602001600020611bf190919063ffffffff16565b905092915050565b600080600084815260200190815260200160002060000160008373ffffffffffffffffffffffffffffffffffffffff1673ffffffffffffffffffffffffffffffffffffffff16815260200190815260200160002060009054906101000a900460ff16905092915050565b606060038054610e6b90613895565b80601f0160208091040260200160405190810160405280929190818152602001828054610e9790613895565b8015610ee45780601f10610eb957610100808354040283529160200191610ee4565b820191906000526020600020905b815481529060010190602001808311610ec757829003601f168201915b5050505050905090565b6000801b81565b610f07610f00611294565b8383611c0b565b5050565b610f1c610f16611294565b83611355565b610f5b576040517f08c379a0000000000000000000000000000000000000000000000000000000008152600401610f5290613a5c565b60405180910390fd5b610f6784848484611d77565b50505050565b6060610f7882611dd3565b604051602001610f889190613f9d565b6040516020818303038152906040529050919050565b6000610fbb60016000848152602001908152602001600020611e3b565b9050919050565b7f9f2df0fed2c77648de5860a4cc508cd0818c85b8b8a1ab4ceeef8d981c8956a681565b610fef82610896565b610ff8816116e3565b611002838361172b565b505050565b7f65d7a28e3265b37a6474929f336521b332c1681b933f6cb9f3376673440d862a81565b6000600760008473ffffffffffffffffffffffffffffffffffffffff1673ffffffffffffffffffffffffffffffffffffffff16815260200190815260200160002060008373ffffffffffffffffffffffffffffffffffffffff1673ffffffffffffffffffffffffffffffffffffffff16815260200190815260200160002060009054906101000a900460ff16905092915050565b6110c98282610df2565b61119b57600160008084815260200190815260200160002060000160008373ffffffffffffffffffffffffffffffffffffffff1673ffffffffffffffffffffffffffffffffffffffff16815260200190815260200160002060006101000a81548160ff021916908315150217905550611140611294565b73ffffffffffffffffffffffffffffffffffffffff168173ffffffffffffffffffffffffffffffffffffffff16837f2f8788117e7eff1d82e926ec794901d17c78024a50270940304540a733656f0d60405160405180910390a45b5050565b60006111c7836000018373ffffffffffffffffffffffffffffffffffffffff1660001b611e50565b905092915050565b60007f780e9d63000000000000000000000000000000000000000000000000000000007bffffffffffffffffffffffffffffffffffffffffffffffffffffffff1916827bffffffffffffffffffffffffffffffffffffffffffffffffffffffff19161480611242575061124182611ec0565b5b9050919050565b61125281611fa2565b611291576040517f08c379a000000000000000000000000000000000000000000000000000000000815260040161128890613d3f565b60405180910390fd5b50565b600033905090565b816006600083815260200190815260200160002060006101000a81548173ffffffffffffffffffffffffffffffffffffffff021916908373ffffffffffffffffffffffffffffffffffffffff160217905550808273ffffffffffffffffffffffffffffffffffffffff1661130f83610b7c565b73ffffffffffffffffffffffffffffffffffffffff167f8c5be1e5ebec7d5bd14f71427d1e84f3dd0314c0f7b2291e5b200ac8c7c3b92560405160405180910390a45050565b60008061136183610b7c565b90508073ffffffffffffffffffffffffffffffffffffffff168473ffffffffffffffffffffffffffffffffffffffff1614806113a357506113a2818561102b565b5b806113e157508373ffffffffffffffffffffffffffffffffffffffff166113c9846106cc565b73ffffffffffffffffffffffffffffffffffffffff16145b91505092915050565b8273ffffffffffffffffffffffffffffffffffffffff1661140a82610b7c565b73ffffffffffffffffffffffffffffffffffffffff1614611460576040517f08c379a000000000000000000000000000000000000000000000000000000000815260040161145790614031565b60405180910390fd5b600073ffffffffffffffffffffffffffffffffffffffff168273ffffffffffffffffffffffffffffffffffffffff16036114cf576040517f08c379a00000000000000000000000000000000000000000000000000000000081526004016114c6906140c3565b60405180910390fd5b6114dc8383836001611fe3565b8273ffffffffffffffffffffffffffffffffffffffff166114fc82610b7c565b73ffffffffffffffffffffffffffffffffffffffff1614611552576040517f08c379a000000000000000000000000000000000000000000000000000000000815260040161154990614031565b60405180910390fd5b6006600082815260200190815260200160002060006101000a81549073ffffffffffffffffffffffffffffffffffffffff02191690556001600560008573ffffffffffffffffffffffffffffffffffffffff1673ffffffffffffffffffffffffffffffffffffffff168152602001908152602001600020600082825403925050819055506001600560008473ffffffffffffffffffffffffffffffffffffffff1673ffffffffffffffffffffffffffffffffffffffff16815260200190815260200160002060008282540192505081905550816004600083815260200190815260200160002060006101000a81548173ffffffffffffffffffffffffffffffffffffffff021916908373ffffffffffffffffffffffffffffffffffffffff160217905550808273ffffffffffffffffffffffffffffffffffffffff168473ffffffffffffffffffffffffffffffffffffffff167fddf252ad1be2c89b69c2b068fc378daa952ba7f163c4a11628f55a4df523b3ef60405160405180910390a46116de8383836001611ff5565b505050565b6116f4816116ef611294565b611ffb565b50565b61170182826110bf565b611726816001600085815260200190815260200160002061119f90919063ffffffff16565b505050565b6117358282612080565b61175a816001600085815260200190815260200160002061216190919063ffffffff16565b505050565b611767612191565b6000600c60006101000a81548160ff0219169083151502179055507f5db9ee0a495bf2e6ff9c91a7834c1ba4fdd244a5e8aa4e537bd38aeae4b073aa6117ab611294565b6040516117b891906133c4565b60405180910390a1565b60006117cd82610b7c565b90506117dd816000846001611fe3565b6117e682610b7c565b90506006600083815260200190815260200160002060006101000a81549073ffffffffffffffffffffffffffffffffffffffff02191690556001600560008373ffffffffffffffffffffffffffffffffffffffff1673ffffffffffffffffffffffffffffffffffffffff168152602001908152602001600020600082825403925050819055506004600083815260200190815260200160002060006101000a81549073ffffffffffffffffffffffffffffffffffffffff021916905581600073ffffffffffffffffffffffffffffffffffffffff168273ffffffffffffffffffffffffffffffffffffffff167fddf252ad1be2c89b69c2b068fc378daa952ba7f163c4a11628f55a4df523b3ef60405160405180910390a461190c816000846001611ff5565b5050565b60006004600083815260200190815260200160002060009054906101000a900473ffffffffffffffffffffffffffffffffffffffff169050919050565b600081600001549050919050565b600073ffffffffffffffffffffffffffffffffffffffff168273ffffffffffffffffffffffffffffffffffffffff16036119ca576040517f08c379a00000000000000000000000000000000000000000000000000000000081526004016119c19061412f565b60405180910390fd5b6119d381611fa2565b15611a13576040517f08c379a0000000000000000000000000000000000000000000000000000000008152600401611a0a9061419b565b60405180910390fd5b611a21600083836001611fe3565b611a2a81611fa2565b15611a6a576040517f08c379a0000000000000000000000000000000000000000000000000000000008152600401611a619061419b565b60405180910390fd5b6001600560008473ffffffffffffffffffffffffffffffffffffffff1673ffffffffffffffffffffffffffffffffffffffff16815260200190815260200160002060008282540192505081905550816004600083815260200190815260200160002060006101000a81548173ffffffffffffffffffffffffffffffffffffffff021916908373ffffffffffffffffffffffffffffffffffffffff160217905550808273ffffffffffffffffffffffffffffffffffffffff16600073ffffffffffffffffffffffffffffffffffffffff167fddf252ad1be2c89b69c2b068fc378daa952ba7f163c4a11628f55a4df523b3ef60405160405180910390a4611b74600083836001611ff5565b5050565b6001816000016000828254019250508190555050565b611b966121da565b6001600c60006101000a81548160ff0219169083151502179055507f62e78cea01bee320cd4e420270b5ea74000d11b0c9f74754ebdbfc544b05a258611bda611294565b604051611be791906133c4565b60405180910390a1565b6000611c008360000183612224565b60001c905092915050565b8173ffffffffffffffffffffffffffffffffffffffff168373ffffffffffffffffffffffffffffffffffffffff1603611c79576040517f08c379a0000000000000000000000000000000000000000000000000000000008152600401611c7090614207565b60405180910390fd5b80600760008573ffffffffffffffffffffffffffffffffffffffff1673ffffffffffffffffffffffffffffffffffffffff16815260200190815260200160002060008473ffffffffffffffffffffffffffffffffffffffff1673ffffffffffffffffffffffffffffffffffffffff16815260200190815260200160002060006101000a81548160ff0219169083151502179055508173ffffffffffffffffffffffffffffffffffffffff168373ffffffffffffffffffffffffffffffffffffffff167f17307eab39ab6107e8899845ad3d59bd9653f200f220920489ca2b5937696c3183604051611d6a9190613253565b60405180910390a3505050565b611d828484846113ea565b611d8e8484848461224f565b611dcd576040517f08c379a0000000000000000000000000000000000000000000000000000000008152600401611dc490614299565b60405180910390fd5b50505050565b6060611dde82611249565b6000611de86123d6565b90506000815111611e085760405180602001604052806000815250611e33565b80611e1284612468565b604051602001611e239291906142b9565b6040516020818303038152906040525b915050919050565b6000611e4982600001612536565b9050919050565b6000611e5c8383612547565b611eb5578260000182908060018154018082558091505060019003906000526020600020016000909190919091505582600001805490508360010160008481526020019081526020016000208190555060019050611eba565b600090505b92915050565b60007f80ac58cd000000000000000000000000000000000000000000000000000000007bffffffffffffffffffffffffffffffffffffffffffffffffffffffff1916827bffffffffffffffffffffffffffffffffffffffffffffffffffffffff19161480611f8b57507f5b5e139f000000000000000000000000000000000000000000000000000000007bffffffffffffffffffffffffffffffffffffffffffffffffffffffff1916827bffffffffffffffffffffffffffffffffffffffffffffffffffffffff1916145b80611f9b5750611f9a8261256a565b5b9050919050565b60008073ffffffffffffffffffffffffffffffffffffffff16611fc483611910565b73ffffffffffffffffffffffffffffffffffffffff1614159050919050565b611fef848484846125e4565b50505050565b50505050565b6120058282610df2565b61207c576120128161263e565b6120208360001c602061266b565b604051602001612031929190614375565b6040516020818303038152906040526040517f08c379a000000000000000000000000000000000000000000000000000000000815260040161207391906132fe565b60405180910390fd5b5050565b61208a8282610df2565b1561215d57600080600084815260200190815260200160002060000160008373ffffffffffffffffffffffffffffffffffffffff1673ffffffffffffffffffffffffffffffffffffffff16815260200190815260200160002060006101000a81548160ff021916908315150217905550612102611294565b73ffffffffffffffffffffffffffffffffffffffff168173ffffffffffffffffffffffffffffffffffffffff16837ff6391f5c32d9c69d2a47ea670b442974b53935d1edc7fd64eb21e047a839171b60405160405180910390a45b5050565b6000612189836000018373ffffffffffffffffffffffffffffffffffffffff1660001b6128a7565b905092915050565b612199610b65565b6121d8576040517f08c379a00000000000000000000000000000000000000000000000000000000081526004016121cf906143fb565b60405180910390fd5b565b6121e2610b65565b15612222576040517f08c379a000000000000000000000000000000000000000000000000000000000815260040161221990614467565b60405180910390fd5b565b600082600001828154811061223c5761223b613cc4565b5b9060005260206000200154905092915050565b60006122708473ffffffffffffffffffffffffffffffffffffffff166129bb565b156123c9578373ffffffffffffffffffffffffffffffffffffffff1663150b7a02612299611294565b8786866040518563ffffffff1660e01b81526004016122bb94939291906144dc565b6020604051808303816000875af19250505080156122f757506040513d601f19601f820116820180604052508101906122f4919061453d565b60015b612379573d8060008114612327576040519150601f19603f3d011682016040523d82523d6000602084013e61232c565b606091505b506000815103612371576040517f08c379a000000000000000000000000000000000000000000000000000000000815260040161236890614299565b60405180910390fd5b805181602001fd5b63150b7a0260e01b7bffffffffffffffffffffffffffffffffffffffffffffffffffffffff1916817bffffffffffffffffffffffffffffffffffffffffffffffffffffffff1916149150506123ce565b600190505b949350505050565b6060600e80546123e590613895565b80601f016020809104026020016040519081016040528092919081815260200182805461241190613895565b801561245e5780601f106124335761010080835404028352916020019161245e565b820191906000526020600020905b81548152906001019060200180831161244157829003601f168201915b5050505050905090565b606060006001612477846129de565b01905060008167ffffffffffffffff81111561249657612495613678565b5b6040519080825280601f01601f1916602001820160405280156124c85781602001600182028036833780820191505090505b509050600082602001820190505b60011561252b578080600190039150507f3031323334353637383961626364656600000000000000000000000000000000600a86061a8153600a858161251f5761251e61456a565b5b049450600085036124d6575b819350505050919050565b600081600001805490509050919050565b600080836001016000848152602001908152602001600020541415905092915050565b60007f5a05180f000000000000000000000000000000000000000000000000000000007bffffffffffffffffffffffffffffffffffffffffffffffffffffffff1916827bffffffffffffffffffffffffffffffffffffffffffffffffffffffff191614806125dd57506125dc82612b31565b5b9050919050565b6125f084848484612bab565b6125f8610b65565b15612638576040517f08c379a000000000000000000000000000000000000000000000000000000000815260040161262f9061460b565b60405180910390fd5b50505050565b60606126648273ffffffffffffffffffffffffffffffffffffffff16601460ff1661266b565b9050919050565b60606000600283600261267e919061465a565b612688919061469c565b67ffffffffffffffff8111156126a1576126a0613678565b5b6040519080825280601f01601f1916602001820160405280156126d35781602001600182028036833780820191505090505b5090507f30000000000000000000000000000000000000000000000000000000000000008160008151811061270b5761270a613cc4565b5b60200101907effffffffffffffffffffffffffffffffffffffffffffffffffffffffffffff1916908160001a9053507f78000000000000000000000000000000000000000000000000000000000000008160018151811061276f5761276e613cc4565b5b60200101907effffffffffffffffffffffffffffffffffffffffffffffffffffffffffffff1916908160001a905350600060018460026127af919061465a565b6127b9919061469c565b90505b6001811115612859577f3031323334353637383961626364656600000000000000000000000000000000600f8616601081106127fb576127fa613cc4565b5b1a60f81b82828151811061281257612811613cc4565b5b60200101907effffffffffffffffffffffffffffffffffffffffffffffffffffffffffffff1916908160001a905350600485901c945080612852906146d0565b90506127bc565b506000841461289d576040517f08c379a000000000000000000000000000000000000000000000000000000000815260040161289490614745565b60405180910390fd5b8091505092915050565b600080836001016000848152602001908152602001600020549050600081146129af5760006001826128d99190614765565b90506000600186600001805490506128f19190614765565b905081811461296057600086600001828154811061291257612911613cc4565b5b906000526020600020015490508087600001848154811061293657612935613cc4565b5b90600052602060002001819055508387600101600083815260200190815260200160002081905550505b8560000180548061297457612973614799565b5b6001900381819060005260206000200160009055905585600101600086815260200190815260200160002060009055600193505050506129b5565b60009150505b92915050565b6000808273ffffffffffffffffffffffffffffffffffffffff163b119050919050565b600080600090507a184f03e93ff9f4daa797ed6e38ed64bf6a1f0100000000000000008310612a3c577a184f03e93ff9f4daa797ed6e38ed64bf6a1f0100000000000000008381612a3257612a3161456a565b5b0492506040810190505b6d04ee2d6d415b85acef81000000008310612a79576d04ee2d6d415b85acef81000000008381612a6f57612a6e61456a565b5b0492506020810190505b662386f26fc100008310612aa857662386f26fc100008381612a9e57612a9d61456a565b5b0492506010810190505b6305f5e1008310612ad1576305f5e1008381612ac757612ac661456a565b5b0492506008810190505b6127108310612af6576127108381612aec57612aeb61456a565b5b0492506004810190505b60648310612b195760648381612b0f57612b0e61456a565b5b0492506002810190505b600a8310612b28576001810190505b80915050919050565b60007f7965db0b000000000000000000000000000000000000000000000000000000007bffffffffffffffffffffffffffffffffffffffffffffffffffffffff1916827bffffffffffffffffffffffffffffffffffffffffffffffffffffffff19161480612ba45750612ba382612d09565b5b9050919050565b612bb784848484612d73565b6001811115612bfb576040517f08c379a0000000000000000000000000000000000000000000000000000000008152600401612bf29061483a565b60405180910390fd5b6000829050600073ffffffffffffffffffffffffffffffffffffffff168573ffffffffffffffffffffffffffffffffffffffff1603612c4257612c3d81612e99565b612c81565b8373ffffffffffffffffffffffffffffffffffffffff168573ffffffffffffffffffffffffffffffffffffffff1614612c8057612c7f8582612ee2565b5b5b600073ffffffffffffffffffffffffffffffffffffffff168473ffffffffffffffffffffffffffffffffffffffff1603612cc357612cbe8161304f565b612d02565b8473ffffffffffffffffffffffffffffffffffffffff168473ffffffffffffffffffffffffffffffffffffffff1614612d0157612d008482613120565b5b5b5050505050565b60007f01ffc9a7000000000000000000000000000000000000000000000000000000007bffffffffffffffffffffffffffffffffffffffffffffffffffffffff1916827bffffffffffffffffffffffffffffffffffffffffffffffffffffffff1916149050919050565b6001811115612e9357600073ffffffffffffffffffffffffffffffffffffffff168473ffffffffffffffffffffffffffffffffffffffff1614612e075780600560008673ffffffffffffffffffffffffffffffffffffffff1673ffffffffffffffffffffffffffffffffffffffff1681526020019081526020016000206000828254612dff9190614765565b925050819055505b600073ffffffffffffffffffffffffffffffffffffffff168373ffffffffffffffffffffffffffffffffffffffff1614612e925780600560008573ffffffffffffffffffffffffffffffffffffffff1673ffffffffffffffffffffffffffffffffffffffff1681526020019081526020016000206000828254612e8a919061469c565b925050819055505b5b50505050565b600a80549050600b600083815260200190815260200160002081905550600a81908060018154018082558091505060019003906000526020600020016000909190919091505550565b60006001612eef84610c92565b612ef99190614765565b9050600060096000848152602001908152602001600020549050818114612fde576000600860008673ffffffffffffffffffffffffffffffffffffffff1673ffffffffffffffffffffffffffffffffffffffff168152602001908152602001600020600084815260200190815260200160002054905080600860008773ffffffffffffffffffffffffffffffffffffffff1673ffffffffffffffffffffffffffffffffffffffff168152602001908152602001600020600084815260200190815260200160002081905550816009600083815260200190815260200160002081905550505b6009600084815260200190815260200160002060009055600860008573ffffffffffffffffffffffffffffffffffffffff1673ffffffffffffffffffffffffffffffffffffffff16815260200190815260200160002060008381526020019081526020016000206000905550505050565b60006001600a805490506130639190614765565b90506000600b60008481526020019081526020016000205490506000600a838154811061309357613092613cc4565b5b9060005260206000200154905080600a83815481106130b5576130b4613cc4565b5b906000526020600020018190555081600b600083815260200190815260200160002081905550600b600085815260200190815260200160002060009055600a80548061310457613103614799565b5b6001900381819060005260206000200160009055905550505050565b600061312b83610c92565b905081600860008573ffffffffffffffffffffffffffffffffffffffff1673ffffffffffffffffffffffffffffffffffffffff168152602001908152602001600020600083815260200190815260200160002081905550806009600084815260200190815260200160002081905550505050565b6000604051905090565b600080fd5b600080fd5b60007fffffffff0000000000000000000000000000000000000000000000000000000082169050919050565b6131e8816131b3565b81146131f357600080fd5b50565b600081359050613205816131df565b92915050565b600060208284031215613221576132206131a9565b5b600061322f848285016131f6565b91505092915050565b60008115159050919050565b61324d81613238565b82525050565b60006020820190506132686000830184613244565b92915050565b600081519050919050565b600082825260208201905092915050565b60005b838110156132a857808201518184015260208101905061328d565b60008484015250505050565b6000601f19601f8301169050919050565b60006132d08261326e565b6132da8185613279565b93506132ea81856020860161328a565b6132f3816132b4565b840191505092915050565b6000602082019050818103600083015261331881846132c5565b905092915050565b6000819050919050565b61333381613320565b811461333e57600080fd5b50565b6000813590506133508161332a565b92915050565b60006020828403121561336c5761336b6131a9565b5b600061337a84828501613341565b91505092915050565b600073ffffffffffffffffffffffffffffffffffffffff82169050919050565b60006133ae82613383565b9050919050565b6133be816133a3565b82525050565b60006020820190506133d960008301846133b5565b92915050565b6133e8816133a3565b81146133f357600080fd5b50565b600081359050613405816133df565b92915050565b60008060408385031215613422576134216131a9565b5b6000613430858286016133f6565b925050602061344185828601613341565b9150509250929050565b61345481613320565b82525050565b600060208201905061346f600083018461344b565b92915050565b60008060006060848603121561348e5761348d6131a9565b5b600061349c868287016133f6565b93505060206134ad868287016133f6565b92505060406134be86828701613341565b9150509250925092565b6000819050919050565b6134db816134c8565b81146134e657600080fd5b50565b6000813590506134f8816134d2565b92915050565b600060208284031215613514576135136131a9565b5b6000613522848285016134e9565b91505092915050565b613534816134c8565b82525050565b600060208201905061354f600083018461352b565b92915050565b6000806040838503121561356c5761356b6131a9565b5b600061357a858286016134e9565b925050602061358b858286016133f6565b9150509250929050565b6000602082840312156135ab576135aa6131a9565b5b60006135b9848285016133f6565b91505092915050565b600080604083850312156135d9576135d86131a9565b5b60006135e7858286016134e9565b92505060206135f885828601613341565b9150509250929050565b61360b81613238565b811461361657600080fd5b50565b60008135905061362881613602565b92915050565b60008060408385031215613645576136446131a9565b5b6000613653858286016133f6565b925050602061366485828601613619565b9150509250929050565b600080fd5b600080fd5b7f4e487b7100000000000000000000000000000000000000000000000000000000600052604160045260246000fd5b6136b0826132b4565b810181811067ffffffffffffffff821117156136cf576136ce613678565b5b80604052505050565b60006136e261319f565b90506136ee82826136a7565b919050565b600067ffffffffffffffff82111561370e5761370d613678565b5b613717826132b4565b9050602081019050919050565b82818337600083830152505050565b6000613746613741846136f3565b6136d8565b90508281526020810184848401111561376257613761613673565b5b61376d848285613724565b509392505050565b600082601f83011261378a5761378961366e565b5b813561379a848260208601613733565b91505092915050565b600080600080608085870312156137bd576137bc6131a9565b5b60006137cb878288016133f6565b94505060206137dc878288016133f6565b93505060406137ed87828801613341565b925050606085013567ffffffffffffffff81111561380e5761380d6131ae565b5b61381a87828801613775565b91505092959194509250565b6000806040838503121561383d5761383c6131a9565b5b600061384b858286016133f6565b925050602061385c858286016133f6565b9150509250929050565b7f4e487b7100000000000000000000000000000000000000000000000000000000600052602260045260246000fd5b600060028204905060018216806138ad57607f821691505b6020821081036138c0576138bf613866565b5b50919050565b7f4552433732313a20617070726f76616c20746f2063757272656e74206f776e6560008201527f7200000000000000000000000000000000000000000000000000000000000000602082015250565b6000613922602183613279565b915061392d826138c6565b604082019050919050565b6000602082019050818103600083015261395181613915565b9050919050565b7f4552433732313a20617070726f76652063616c6c6572206973206e6f7420746f60008201527f6b656e206f776e6572206f7220617070726f76656420666f7220616c6c000000602082015250565b60006139b4603d83613279565b91506139bf82613958565b604082019050919050565b600060208201905081810360008301526139e3816139a7565b9050919050565b7f4552433732313a2063616c6c6572206973206e6f7420746f6b656e206f776e6560008201527f72206f7220617070726f76656400000000000000000000000000000000000000602082015250565b6000613a46602d83613279565b9150613a51826139ea565b604082019050919050565b60006020820190508181036000830152613a7581613a39565b9050919050565b7f455243373231456e756d657261626c653a206f776e657220696e646578206f7560008201527f74206f6620626f756e6473000000000000000000000000000000000000000000602082015250565b6000613ad8602b83613279565b9150613ae382613a7c565b604082019050919050565b60006020820190508181036000830152613b0781613acb565b9050919050565b7f416363657373436f6e74726f6c3a2063616e206f6e6c792072656e6f756e636560008201527f20726f6c657320666f722073656c660000000000000000000000000000000000602082015250565b6000613b6a602f83613279565b9150613b7582613b0e565b604082019050919050565b60006020820190508181036000830152613b9981613b5d565b9050919050565b7f4552433732315072657365744d696e7465725061757365724175746f49643a2060008201527f6d75737420686176652070617573657220726f6c6520746f20756e7061757365602082015250565b6000613bfc604083613279565b9150613c0782613ba0565b604082019050919050565b60006020820190508181036000830152613c2b81613bef565b9050919050565b7f455243373231456e756d657261626c653a20676c6f62616c20696e646578206f60008201527f7574206f6620626f756e64730000000000000000000000000000000000000000602082015250565b6000613c8e602c83613279565b9150613c9982613c32565b604082019050919050565b60006020820190508181036000830152613cbd81613c81565b9050919050565b7f4e487b7100000000000000000000000000000000000000000000000000000000600052603260045260246000fd5b7f4552433732313a20696e76616c696420746f6b656e2049440000000000000000600082015250565b6000613d29601883613279565b9150613d3482613cf3565b602082019050919050565b60006020820190508181036000830152613d5881613d1c565b9050919050565b7f4552433732315072657365744d696e7465725061757365724175746f49643a2060008201527f6d7573742068617665206d696e74657220726f6c6520746f206d696e74000000602082015250565b6000613dbb603d83613279565b9150613dc682613d5f565b604082019050919050565b60006020820190508181036000830152613dea81613dae565b9050919050565b7f4552433732313a2061646472657373207a65726f206973206e6f74206120766160008201527f6c6964206f776e65720000000000000000000000000000000000000000000000602082015250565b6000613e4d602983613279565b9150613e5882613df1565b604082019050919050565b60006020820190508181036000830152613e7c81613e40565b9050919050565b7f4552433732315072657365744d696e7465725061757365724175746f49643a2060008201527f6d75737420686176652070617573657220726f6c6520746f2070617573650000602082015250565b6000613edf603e83613279565b9150613eea82613e83565b604082019050919050565b60006020820190508181036000830152613f0e81613ed2565b9050919050565b600081905092915050565b6000613f2b8261326e565b613f358185613f15565b9350613f4581856020860161328a565b80840191505092915050565b7f2e6a736f6e000000000000000000000000000000000000000000000000000000600082015250565b6000613f87600583613f15565b9150613f9282613f51565b600582019050919050565b6000613fa98284613f20565b9150613fb482613f7a565b915081905092915050565b7f4552433732313a207472616e736665722066726f6d20696e636f72726563742060008201527f6f776e6572000000000000000000000000000000000000000000000000000000602082015250565b600061401b602583613279565b915061402682613fbf565b604082019050919050565b6000602082019050818103600083015261404a8161400e565b9050919050565b7f4552433732313a207472616e7366657220746f20746865207a65726f2061646460008201527f7265737300000000000000000000000000000000000000000000000000000000602082015250565b60006140ad602483613279565b91506140b882614051565b604082019050919050565b600060208201905081810360008301526140dc816140a0565b9050919050565b7f4552433732313a206d696e7420746f20746865207a65726f2061646472657373600082015250565b6000614119602083613279565b9150614124826140e3565b602082019050919050565b600060208201905081810360008301526141488161410c565b9050919050565b7f4552433732313a20746f6b656e20616c7265616479206d696e74656400000000600082015250565b6000614185601c83613279565b91506141908261414f565b602082019050919050565b600060208201905081810360008301526141b481614178565b9050919050565b7f4552433732313a20617070726f766520746f2063616c6c657200000000000000600082015250565b60006141f1601983613279565b91506141fc826141bb565b602082019050919050565b60006020820190508181036000830152614220816141e4565b9050919050565b7f4552433732313a207472616e7366657220746f206e6f6e20455243373231526560008201527f63656976657220696d706c656d656e7465720000000000000000000000000000602082015250565b6000614283603283613279565b915061428e82614227565b604082019050919050565b600060208201905081810360008301526142b281614276565b9050919050565b60006142c58285613f20565b91506142d18284613f20565b91508190509392505050565b7f416363657373436f6e74726f6c3a206163636f756e7420000000000000000000600082015250565b6000614313601783613f15565b915061431e826142dd565b601782019050919050565b7f206973206d697373696e6720726f6c6520000000000000000000000000000000600082015250565b600061435f601183613f15565b915061436a82614329565b601182019050919050565b600061438082614306565b915061438c8285613f20565b915061439782614352565b91506143a38284613f20565b91508190509392505050565b7f5061757361626c653a206e6f7420706175736564000000000000000000000000600082015250565b60006143e5601483613279565b91506143f0826143af565b602082019050919050565b60006020820190508181036000830152614414816143d8565b9050919050565b7f5061757361626c653a2070617573656400000000000000000000000000000000600082015250565b6000614451601083613279565b915061445c8261441b565b602082019050919050565b6000602082019050818103600083015261448081614444565b9050919050565b600081519050919050565b600082825260208201905092915050565b60006144ae82614487565b6144b88185614492565b93506144c881856020860161328a565b6144d1816132b4565b840191505092915050565b60006080820190506144f160008301876133b5565b6144fe60208301866133b5565b61450b604083018561344b565b818103606083015261451d81846144a3565b905095945050505050565b600081519050614537816131df565b92915050565b600060208284031215614553576145526131a9565b5b600061456184828501614528565b91505092915050565b7f4e487b7100000000000000000000000000000000000000000000000000000000600052601260045260246000fd5b7f4552433732315061757361626c653a20746f6b656e207472616e73666572207760008201527f68696c6520706175736564000000000000000000000000000000000000000000602082015250565b60006145f5602b83613279565b915061460082614599565b604082019050919050565b60006020820190508181036000830152614624816145e8565b9050919050565b7f4e487b7100000000000000000000000000000000000000000000000000000000600052601160045260246000fd5b600061466582613320565b915061467083613320565b925082820261467e81613320565b915082820484148315176146955761469461462b565b5b5092915050565b60006146a782613320565b91506146b283613320565b92508282019050808211156146ca576146c961462b565b5b92915050565b60006146db82613320565b9150600082036146ee576146ed61462b565b5b600182039050919050565b7f537472696e67733a20686578206c656e67746820696e73756666696369656e74600082015250565b600061472f602083613279565b915061473a826146f9565b602082019050919050565b6000602082019050818103600083015261475e81614722565b9050919050565b600061477082613320565b915061477b83613320565b92508282039050818111156147935761479261462b565b5b92915050565b7f4e487b7100000000000000000000000000000000000000000000000000000000600052603160045260246000fd5b7f455243373231456e756d657261626c653a20636f6e736563757469766520747260008201527f616e7366657273206e6f7420737570706f727465640000000000000000000000602082015250565b6000614824603583613279565b915061482f826147c8565b604082019050919050565b6000602082019050818103600083015261485381614817565b905091905056fea2646970667358221220753286007985b5d69d234953d383fba7293e7a874aa0159bfffb6795bae5f97864736f6c63430008110033",
  "immutableReferences": {},
  "source": "// SPDX-License-Identifier: MIT\npragma solidity >=0.8.3 < 0.9.0;\n\nimport \"@openzeppelin/contracts/token/ERC721/presets/ERC721PresetMinterPauserAutoId.sol\";\n\ncontract BlinkToken is ERC721PresetMinterPauserAutoId{\n    //use our own site\n    constructor() ERC721PresetMinterPauserAutoId(\"BlinkToken\",\"BLK\",\"https://blink.art/metadata/\"){}\n\n    function tokenURI(uint256 tokenId) public view virtual override returns (string memory){\n        return string(abi.encodePacked(super.tokenURI(tokenId), \".json\"));\n    }\n}",
  "sourcePath": "/home/aman/Desktop/03_mydev/web3/ERC721POC/contracts/BlinkToken.sol",
  "compiler": {
    "name": "solc",
    "version": "0.8.17+commit.8df45f5f.Emscripten.clang"
  },
  "schemaVersion": "3.4.11",
  "updatedAt": "2022-12-20T07:27:40.420Z",
  "networkType": "ethereum",
  "devdoc": {
    "kind": "dev",
    "methods": {
      "approve(address,uint256)": {
        "details": "See {IERC721-approve}."
      },
      "balanceOf(address)": {
        "details": "See {IERC721-balanceOf}."
      },
      "burn(uint256)": {
        "details": "Burns `tokenId`. See {ERC721-_burn}. Requirements: - The caller must own `tokenId` or be an approved operator."
      },
      "getApproved(uint256)": {
        "details": "See {IERC721-getApproved}."
      },
      "getRoleAdmin(bytes32)": {
        "details": "Returns the admin role that controls `role`. See {grantRole} and {revokeRole}. To change a role's admin, use {_setRoleAdmin}."
      },
      "getRoleMember(bytes32,uint256)": {
        "details": "Returns one of the accounts that have `role`. `index` must be a value between 0 and {getRoleMemberCount}, non-inclusive. Role bearers are not sorted in any particular way, and their ordering may change at any point. WARNING: When using {getRoleMember} and {getRoleMemberCount}, make sure you perform all queries on the same block. See the following https://forum.openzeppelin.com/t/iterating-over-elements-on-enumerableset-in-openzeppelin-contracts/2296[forum post] for more information."
      },
      "getRoleMemberCount(bytes32)": {
        "details": "Returns the number of accounts that have `role`. Can be used together with {getRoleMember} to enumerate all bearers of a role."
      },
      "grantRole(bytes32,address)": {
        "details": "Grants `role` to `account`. If `account` had not been already granted `role`, emits a {RoleGranted} event. Requirements: - the caller must have ``role``'s admin role. May emit a {RoleGranted} event."
      },
      "hasRole(bytes32,address)": {
        "details": "Returns `true` if `account` has been granted `role`."
      },
      "isApprovedForAll(address,address)": {
        "details": "See {IERC721-isApprovedForAll}."
      },
      "mint(address)": {
        "details": "Creates a new token for `to`. Its token ID will be automatically assigned (and available on the emitted {IERC721-Transfer} event), and the token URI autogenerated based on the base URI passed at construction. See {ERC721-_mint}. Requirements: - the caller must have the `MINTER_ROLE`."
      },
      "name()": {
        "details": "See {IERC721Metadata-name}."
      },
      "ownerOf(uint256)": {
        "details": "See {IERC721-ownerOf}."
      },
      "pause()": {
        "details": "Pauses all token transfers. See {ERC721Pausable} and {Pausable-_pause}. Requirements: - the caller must have the `PAUSER_ROLE`."
      },
      "paused()": {
        "details": "Returns true if the contract is paused, and false otherwise."
      },
      "renounceRole(bytes32,address)": {
        "details": "Revokes `role` from the calling account. Roles are often managed via {grantRole} and {revokeRole}: this function's purpose is to provide a mechanism for accounts to lose their privileges if they are compromised (such as when a trusted device is misplaced). If the calling account had been revoked `role`, emits a {RoleRevoked} event. Requirements: - the caller must be `account`. May emit a {RoleRevoked} event."
      },
      "revokeRole(bytes32,address)": {
        "details": "Revokes `role` from `account`. If `account` had been granted `role`, emits a {RoleRevoked} event. Requirements: - the caller must have ``role``'s admin role. May emit a {RoleRevoked} event."
      },
      "safeTransferFrom(address,address,uint256)": {
        "details": "See {IERC721-safeTransferFrom}."
      },
      "safeTransferFrom(address,address,uint256,bytes)": {
        "details": "See {IERC721-safeTransferFrom}."
      },
      "setApprovalForAll(address,bool)": {
        "details": "See {IERC721-setApprovalForAll}."
      },
      "supportsInterface(bytes4)": {
        "details": "See {IERC165-supportsInterface}."
      },
      "symbol()": {
        "details": "See {IERC721Metadata-symbol}."
      },
      "tokenByIndex(uint256)": {
        "details": "See {IERC721Enumerable-tokenByIndex}."
      },
      "tokenOfOwnerByIndex(address,uint256)": {
        "details": "See {IERC721Enumerable-tokenOfOwnerByIndex}."
      },
      "tokenURI(uint256)": {
        "details": "See {IERC721Metadata-tokenURI}."
      },
      "totalSupply()": {
        "details": "See {IERC721Enumerable-totalSupply}."
      },
      "transferFrom(address,address,uint256)": {
        "details": "See {IERC721-transferFrom}."
      },
      "unpause()": {
        "details": "Unpauses all token transfers. See {ERC721Pausable} and {Pausable-_unpause}. Requirements: - the caller must have the `PAUSER_ROLE`."
      }
    },
    "version": 1
  },
  "userdoc": {
    "kind": "user",
    "methods": {},
    "version": 1
  }
}